:020000040800F2
:1000000058150020C90100082D3F0008F1340008F0
:10001000A93B0008410A00080F6200080000000028
:100020000000000000000000000000008D470008F4
:10003000A70A000800000000494400088F47000894
:10004000E3010008E3010008E3010008E301000800
:10005000E3010008E3010008E3010008E3010008F0
:10006000E3010008E3010008E3010008650A000855
:10007000E3010008E3010008710A0008E301000839
:10008000E3010008E3010008E30100088D610008B6
:1000900099610008E3010008E3010008E30100089A
:1000A000E30100081D480008E3010008E30100081F
:1000B000E3010008E3010008E3010008E301000890
:1000C000E3010008E3010008E3010008E301000880
:1000D000E3010008B14C0008E3010008E301000857
:1000E000E3010008E3010008E301000800F002F862
:1000F00000F05AF80AA090E8000C82448344AAF168
:100100000107DA4501D100F04FF8AFF2090EBAE865
:100110000F0013F0010F18BFFB1A43F0010318473B
:10012000E07F0000008000000A444FF0000C10F84F
:10013000013B13F0070408BF10F8014B1D1108BF65
:1001400010F8015B641E05D010F8016B641E01F805
:10015000016BF9D113F0080F1EBF10F8014BAD1C55
:100160000C1B09D16D1E58BF01F801CBFAD505E073
:1001700014F8016B01F8016B6D1EF9D59142D6D3CD
:10018000704700000023002400250026103A28BFF5
:1001900078C1FBD8520728BF30C148BF0B607047F9
:1001A0001FB51FBD10B510BD00F0E2F81146FFF7F6
:1001B000F7FF06F0E1FC00F000F903B4FFF7F2FFEF
:1001C00003BC00F003F900000948804709480047D4
:1001D000FEE7FEE7FEE7FEE7FEE7FEE7FEE7FEE7F7
:1001E000FEE7FEE704480549054A064B7047000054
:1001F0000F480008ED000008580F00205815002097
:100200005811002058110020032A40F2308010F0CD
:10021000030C00F0158011F8013BBCF1020F6244A1
:1002200098BF11F801CB00F8013B38BF11F8013B32
:10023000A2F1040298BF00F801CB38BF00F8013BDF
:1002400011F0030300F05A80083AC0F0088051F81A
:10025000043B083A51F804CBA0E80810F5E7121D5A
:100260005CBF51F8043B40F8043BAFF30080D20779
:1002700024BF11F8013B11F801CB48BF11F8012B45
:1002800024BF00F8013B00F801CB48BF00F8012B68
:1002900070474FF0000200B5134694469646203949
:1002A00022BFA0E80C50A0E80C50B1F12001BFF42F
:1002B000F7AF090728BFA0E80C5048BF0CC05DF895
:1002C00004EB890028BF40F8042B08BF704748BFE3
:1002D00020F8022B11F0804F18BF00F8012B704757
:1002E00070477047704710B500F03AF8006810BDCD
:1002F00010B5044600F034F8046010BD10B5203A83
:10030000C0F00B80B1E81850203AA0E81850B1E8CE
:100310001850A0E81850BFF4F5AF5FEA027C24BF84
:10032000B1E81850A0E8185044BF18C918C0BDE87B
:1003300010405FEA827C24BF51F8043B40F8043B44
:1003400008BF7047D20728BF31F8023B48BF11F8F9
:10035000012B28BF20F8023B48BF00F8012B704753
:1003600000487047F40E002000487047F40E00204B
:100370007546FFF7F9FFAE4605006946534620F083
:100380000700854618B020B5FFF72CFFBDE82040D8
:100390004FF000064FF000074FF000084FF0000B41
:1003A00021F00701AC46ACE8C009ACE8C009ACE8F4
:1003B000C009ACE8C0098D46704710B50446AFF3DC
:1003C00000802046BDE81040FFF7F7BE0149182025
:1003D000ABBEFEE7260002007047000070B5044681
:1003E00000688168C943C90717D1816821F00101FC
:1003F000816001F027FB05460AE000BF01F022FB07
:10040000401B022804D920688068C043C00706D07A
:1004100020688068C043C007F0D0002070BDA06A8B
:1004200040F01000A062E06A40F00100E0620120AC
:1004300070BD10B50146406A826A12F0500F05D0B7
:10044000006A026BBDE8104008461047816A41F41B
:100450000071816201688968C1F3424107290CD1AA
:10046000017B51B9816A21F480718162816AC9047A
:1004700003D4816A41F00101816200F00DFF10BDDB
:1004800010B5406A816A41F040018162C16A41F061
:100490000401C16200F002FF10BD10B5406A00F017
:1004A000FCFE10BD10B5054800F00CFEBDE8104084
:1004B0000A220349014800F0C9BF000030020020B1
:1004C000080D0020F8B500260446009600688168F3
:1004D000C943C9072DD0816841F0010181601648E8
:1004E00016490068B0FBF1F000E0401E00900028C3
:1004F000FBD101F0A7FA054616E000BF01F0A2FA11
:10050000401B022810D920688068C043C0070BD068
:10051000A06A40F01000A062E06A40F00100E062D2
:1005200084F824600120F8BD20688068C043C007BB
:10053000E4D10020F8BD00000C00002040420F0074
:1005400010B505F019FE03F09AF806F089FBC820F3
:1005500006F0C0FA03F0A6FC03F098FD04F064F97D
:1005600004F078F9084940F2E7300860091D086096
:10057000091D0860091D08600448022181704FF4BC
:100580009671018010BD000034040040DC010020A1
:1005900070B51B4C90F90210257811291ED011DC82
:1005A00001291AD0022922D0032916D0102914D1EA
:1005B00045F001012170BDE870401222011D114873
:1005C000FFF722BE122908D1011D0E481222243045
:1005D000FFF71AFE45F00400207070BD011D0948A8
:1005E00012221230FFF710FE45F00200F4E7007906
:1005F0002128F2DA0128F0D145F04000ECE70000B4
:10060000930100205C0E00202DE9F047864D022169
:100610008246A84610281CD00ADC4FF00004BAF12C
:10062000070F6AD2DFE80AF0D9B1A081D9D96A00F0
:10063000142861D007DC11280FD012285CD0BAF141
:10064000130F5AD158E0152856D0BAF1EF0FF8D150
:10065000BFE0764F764E774C02E0774F774E784C7E
:10066000DFF8E091BFB13869494607F0BDFA07F0FD
:1006700073FAA8F804007869494607F0B5FA07F05C
:100680006BFAA8F80600B869494607F0ADFA07F01A
:1006900063FAA8F80800B6B13069494607F0A4FA31
:1006A00007F05AFAA8F80A0070694746494607F069
:1006B0009BFA07F051FAB881B069494607F094FAFD
:1006C00007F04AFAF881BCB120694F46494607F065
:1006D0008BFA07F041FAA8F81000606946463946DF
:1006E00007F082FA07F038FA7082A069394607F0FD
:1006F0007BFA07F031FAB08212216EE052490A8883
:10070000A8F804204A88A8F806208A88A8F80820B3
:10071000C988A8F80A10A8F80C40A8F80E40A8F854
:100720001040A8F81240102157E048481421828850
:10073000A8F80420C288A8F806200288A8F8082093
:100740004288A8F80A200289A8F80C204289A8F853
:100750000E208289A8F81020C089A8F81200A8F8F5
:100760001420A8F8160038E02F48394936380A68AE
:1007700040F83A2F4A68426089688160A8F81040C2
:10078000A8F81240A8F81440B6E7324FDFF8C89036
:100790004946386807F028FA07F0DEF94042A8F821
:1007A000040046464946786807F01EFA07F0D4F977
:1007B000F0804946B86807F017FA07F0CDF94042D3
:1007C000308126487481B48100780002F0810C21C8
:1007D00003E023484288A8F804204AF6AA22A8F891
:1007E000002041EA0A226E18A8F802205420307135
:1007F00002200C1D0DE02F182B5C7A7853405A40D4
:100800007A7053402B541A443379801C1A44327145
:10081000C0B2A042EFD32846491D05F0F9FCBDE85F
:10082000F04705F03FBD0000920E0020D00B0020E5
:10083000040C0020380C0020A00C00206C0C0020C0
:10084000D40C002000007A447E0100206C010020BE
:10085000B80B0020C40B00200000C8427C0100201F
:10086000920100202DE9F0476C4D2878012638B11F
:100870006C1C012807D0022803D12078D8B11BE0D6
:100880002E70BDE8F0870220FFF7BEFE1E2006F0A6
:1008900021F90120FFF7B8FE1E2006F01BF9032006
:1008A000FFF7B2FE1E2006F015F920780028E8D0E8
:1008B00002202870E5E72E7040060FD51020FFF7C4
:1008C000A3FE0F2006F006F91120FFF79DFE0F2072
:1008D00006F000F9207820F0400020702078810692
:1008E000CFD0C10707D0DFF838814E4F4E4E4F4D65
:1008F00020F0010009E081077ED54C4DDFF8308102
:100900004C4F4D4E123520F00200DFF83091207030
:10091000B8F1000F29D0287860F30F24687860F3CD
:100920000704A0B207F04CF9494607F053F8C8F89D
:100930001000A87860F30F24E87860F30704A0B2F1
:1009400007F03EF9494607F045F8C8F81400287941
:1009500060F30F24687960F30704A0B207F030F960
:10096000494607F037F8C8F8180037B3A87960F39C
:100970000F24E87960F30704A0B207F021F9494693
:1009800007F028F83861287A60F30F24687A60F35A
:100990000704A0B207F014F9494607F01BF8786184
:1009A000A87A60F30F24E87A60F30704A0B207F096
:1009B00007F9494607F00EF8B861002E90D0287B61
:1009C00060F30F24687B60F30704A0B207F0F8F827
:1009D0004F46494606F0FEFF3061A87B60F30F24C6
:1009E000E87B60F30704A0B207F0EAF8394606F0A6
:1009F000F1FF7061287C00E00CE060F30F24687C5C
:100A000060F30704A0B207F0DBF8394606F0E2FF16
:100A1000B06136E72E700020207032E7920100208E
:100A2000D00B0020040C0020380C00205C0E0020AD
:100A3000A00C00206C0C0020D40C002000007A4494
:100A4000FEE770B50C46054616461146204606F0F0
:100A5000D7F8A06A286031462846BDE8704006F005
:100A6000CFB80000014800F0E7BD000060020020A0
:100A7000014800F0E1BD0000C403002030B590F84B
:100A800040500124AC40C56B6C60046863604368EF
:100A9000102B036803D099600068C26030BD9A6073
:100AA0000068C16030BD704772B6FEE7064B074A6A
:100AB000491EC9B2136006D313681B8820F8023B95
:100AC00013689B1CF4E77047007C00088801002035
:100AD0002DE9F14F474C2078474F01280CD0DFF823
:100AE0001CB1474D4FF000080B280BD01F2816D023
:100AF000FF2877D0FF2003E0387800286AD00B2049
:100B0000207067E03B480621083006F064F8CBF817
:100B10002480CBF800801F20C5F80880F0E7384912
:100B2000AA4638486E680D68864206D836498E4215
:100B300003DC854201D88D4206DD34488088B0F55B
:100B4000966F01D987F80080DFF8C480B8F90600F5
:100B500007F01EF8DFF8BC90D9F8001007F044F851
:100B60002D494862B8F9080007F012F8D9F80010CA
:100B700007F03AF829494862B8F90A0007F008F87E
:100B8000D9F8001007F030F825494862DFF8948062
:100B9000C8F82460244E7562DAF80810CBF82410E7
:100BA0003046009906F02CF8B16A1B4801600099A4
:100BB00006F026F84046009906F022F8D8F82810EA
:100BC00016480160009906F01BF80C491448009A79
:100BD000FFF737FF3878002801D1FF202070BDE8EB
:100BE000F88FFFE703480621083005F0F4FF0120E5
:100BF00086E70000980100207C010020D40C002032
:100C0000C40B0020000048C2000048426C010020D4
:100C1000B80B0020FC7F0008D00B0020040C002043
:100C2000380C00206C0C0020A00C00202DE9F74FA0
:100C30008CB00F4605464FF0FF310E9807F07FF954
:100C4000DFF8289400904C46D9F80810D9F8000035
:100C500006F0CAFFE1680646606806F0C5FF314647
:100C600007F098F8012107F06AF90990E168A06897
:100C700006F0BAFF61680646206806F0B5FF314607
:100C800006F040FE012107F05AF90A90A168A06819
:100C900006F0AAFF61680646606806F0A5FF3146C7
:100CA00006F030FE012107F04AF94FF07E5B59460D
:100CB00007F066F80B90EE4CB4F9040006F068FFFC
:100CC000014606F091FF0646B4F9020006F060FF07
:100CD000014606F089FF8046B4F9000006F058FF8F
:100CE000014606F081FF414606F00CFE314606F053
:100CF00009FE03F0EFFBA9F10C080646C8F808004E
:100D00004446B5F9000006F043FF314606F06CFF9B
:100D10000690B5F9020006F03BFF314606F064FF8D
:100D20000790B5F9040006F033FF314606F05CFF8A
:100D300008900A99089806F057FF0B9906460798FD
:100D400006F052FF314607F025F804900B990698FB
:100D500006F04AFF09990646089806F045FF314615
:100D600007F018F805900999079806F03DFF0A99D1
:100D70000646069806F038FF314607F00BF8069055
:100D8000049861680E4606F02FFFBA4C216806F001
:100D9000B9FD20600598314606F026FF616806F02F
:100DA000B1FD60600698314606F01EFFA16806F0AE
:100DB000A9FDA0600499D8F80000824606F014FF4F
:100DC0008046B5F9060006F0E3FEAB4E316806F04A
:100DD0000BFF414606F096FD216806F093FD079053
:100DE0000599504606F000FF8046B5F9080006F068
:100DF000CFFE316806F0F8FE414606F083FD6168DB
:100E000006F080FD08900699504606F0EDFE8046FB
:100E1000B5F90A0006F0BCFE316806F0E5FE414671
:100E200006F070FDA16806F06DFD099009994C4629
:100E3000D9F80C0006F0D8FE08998046A06806F0A4
:100E4000D3FE06466068079980F0004006F0CCFEAD
:100E5000314606F09FFF414606F09CFF009906F0E0
:100E6000C3FE09998246A06806F0BEFE08990646B0
:100E7000E06806F0B9FE07998046206806F0B4FEE7
:100E8000414606F087FF314606F03CFD009906F02A
:100E9000ABFE09998146606806F0A6FE08990646F1
:100EA000206806F0A1FE07998046E06806F09CFEE7
:100EB000414606F027FD314606F06CFF009906F02A
:100EC00093FE09998046206806F08EFE07990190EE
:100ED000A06806F089FE08990646606806F084FE60
:100EE000314606F057FF019906F00CFD009906F017
:100EF0007BFE06462068514606F004FD20606068CF
:100F0000494606F0FFFC6060A068414606F0FAFC26
:100F1000A060E068314606F0F5FCE060E168E0685A
:100F200006F062FEA1688046A06806F05DFE61687A
:100F30008146606806F058FE21680646206806F083
:100F400053FE314606F0DEFC494606F0DBFC414626
:100F500006F0D8FC03F0BEFA06462068314606F0DB
:100F600043FE20606068314606F03EFE6060A06887
:100F7000314606F039FEA060E068314606F034FEE6
:100F8000E060B5F90A0006F003FE3C49096806F086
:100F90002BFE584502DC10F1814F06D90E9906F060
:100FA00023FEB96806F0AEFCB8603548006806F06C
:100FB0007DFC054660680E46012106F0C0FFE16831
:100FC00006F012FE80462068012106F0B8FFA168F5
:100FD00006F00AFE414606F0DDFE06F067FC05F06D
:100FE00063FA2A46334606F087F905F0F1FE786089
:100FF000A068A846B146012106F0A1FFA16806F04D
:10100000F3FD05466068012106F099FF616806F06E
:10101000EBFD594606F0B4FE294606F0BBFE06F08D
:1010200045FC064620680D46012106F088FF6168F0
:1010300006F0DAFD8246A068012106F080FFE16833
:1010400006F0D2FD514606F05DFC06F02FFC32465C
:101050002B4605F071FC42464B4606F04DF905F073
:10106000B7FE38600FB0BDE8F08F0000CC01002063
:10107000B80B0020D00E002000800008FC7F000884
:10108000F87F000810B50D494FF0E02308689A6911
:101090000C68A042FAD10A490B68096803EB4304C3
:1010A000C4EBC313C2EBC302B2FBF1F100EB40028D
:1010B000C2EBC01001EBC00010BD00000800002012
:1010C00068010020F8B500250446009590F824003A
:1010D00001280BD0012084F824002046FFF77EF978
:1010E0002046FFF7EFF9060002D050E00220F8BDDD
:1010F000A06A20F4885040F00200A062022001F0B3
:10110000E3F925490968B1FBF0F0400000E0401E1A
:1011100000900028FBD12068816841F008018160BF
:1011200000F090FC074608E000F08CFCC01B0A2889
:1011300003D920688068000715D4206880680007FC
:10114000F2D42068816841F00401816000F07AFCEB
:10115000074612E000F076FCC01B0A280DD9206873
:101160008068400709D5A06A20F0020040F0100016
:10117000A06284F824500120F8BD206880684007F0
:10118000E8D4A06A20F0020040F00100A06284F8D8
:1011900024503046F8BD00000C000020F8B50024B3
:1011A000009490F824202546012A12D0012280F8CC
:1011B00024204A681F23072A0DD20668776B521E27
:1011C00002EB820293409F430B6893401F43776377
:1011D00019E00220F8BD06680D2A0AD2376BD21F2B
:1011E00002EB820293409F430B6893401F43376397
:1011F00009E0F76A0D3A02EB820293409F430B68C5
:1012000093401F43F7620A68072306680A2A0AD335
:10121000F7680A3A02EB420293409F438B6893407F
:101220001F43F76008E0376902EB420293409F4397
:101230008B6893401F4337610A68102A01D0112A36
:1012400020D1124B02689A4217D193681B0219D41D
:10125000936843F4000393600968102912D10C4984
:101260000C4A0968B1FBF2F101EB8101490000E091
:10127000491E00910029FBD104E0816A41F0200160
:101280008162012480F824502046F8BD00240140EA
:101290000C00002040420F0070477047704700006C
:1012A0002DE9F0414FF0000704003D467ED0A06AD2
:1012B000002628B9E66284F82460204600F07EF813
:1012C0002046FFF78BF8A16AC90600D420B1A06AB6
:1012D00040F01000A06269E0A16A21F4885141F059
:1012E0000201A1626268E169237B0A4347EA430184
:1012F0000A43A1684FF48077B94209D0012907D089
:101300005FF0000194F814C0BCF1010F02D00AE0B4
:101310003946F7E7F3B1A36A43F02003A362E36A17
:1013200043F00103E3622368D3F804C02CF4694C52
:101330004CEA010CC3F804C021688B68DFF870C068
:1013400003EA0C0313438B60A168B9420BD0012957
:1013500009D00CE0DFF85CC0A3690CEB43330B430E
:1013600043F40061DFE7218A0D05A5F580152168AA
:10137000CB6A23F470032B43CB62216889680E4B40
:101380001940914208D1E662A16A21F0020141F0C0
:101390000101A162BDE8F081A06A20F0020040F0E6
:1013A0001000A062E06A40F00100E0620120F1E775
:1013B000FDF7E1FF00E0FFFFFE0E1FFFF0B585B077
:1013C00000260546009601960296039600681A4983
:1013D00088422ED11949886940F400708861886973
:1013E00000F400700490886940F004008861886906
:1013F000202700F0040004900320CDE90070694626
:101400000F4800F029FA104C0E48C4E9000680206D
:10141000C4E90260400020618000C4E90507C00003
:10142000E061204600F0B2F908B1FFF73DFB2C6205
:10143000656205B0F0BD00000024014000100240CC
:101440000008014008000240600200202DE9F0473A
:10145000894604463B4900683B4F0E1D9046884232
:1014600001D0B84207D1306810F4702F03D00125A5
:101470002846BDE8F08794F8240001280CD001200C
:1014800084F824002046FFF71DF805004FF0000007
:1014900004D084F82400EBE70220EAE7A16A40F6D2
:1014A0000162914341F48071A1622168B94218D16F
:1014B000326812F4702F14D0A16A41F48011A16235
:1014C0003168490505D5A16A21F4005141F48051E4
:1014D000A162A16AC9040AD5E16A21F00601E162AC
:1014E00006E0A26A22F48012A2624968E9E7E0629B
:1014F00084F82400216A15488862216A1448C86269
:10150000216A1448086321686FF0020008602068AF
:10151000816841F480718160216843464A464C31BC
:10152000206A00F061F920688168C1F3424107290F
:10153000816803D041F48011816099E741F4A001F2
:10154000FAE70000002401400028014033040008AD
:101550009B0400088104000810B590F821100022B7
:10156000022905D00421816380F82020012010BDCC
:1015700001680B6823F00E030B6001680B6823F011
:1015800001030B6090F84030C46B012101FA03F3B2
:10159000636080F8211080F82020104610BD000004
:1015A00010B590F821100024022903D00421816392
:1015B00001243DE001680A6822F00E020A60016819
:1015C0000A6822F001020A601A4A0168914201D1B8
:1015D000012121E0174A1432914201D110211BE070
:1015E000144A2832914201D1891515E0114A3C3242
:1015F000914201D189140FE00E4A5032914202D13A
:101600004FF4803108E00B4A6432914202D14FF42A
:10161000801101E04FF08071064A083A51600121C3
:1016200080F82110002180F82010416B01B188471B
:10163000204610BD080002402DE9F05FC16B0C6828
:1016400001680B68D0F840C0042202FA0CF2494D40
:10165000DFF824A1494E4A4FDFF828B1DFF828E12E
:1016600022422CD05A072AD50A68920603D40A6867
:1016700022F004020A600168A94201D1042219E0A3
:10168000514501D1402215E0B14202D14FF48062B0
:1016900010E0B94202D14FF480420BE0594502D12B
:1016A0004FF4802206E0714502D14FF4800201E040
:1016B0004FF080622F4908394A60C16A3BE04FF021
:1016C000020808FA0CF818EA040F4FF000094FF06E
:1016D000010235D05FEA837832D50B689B0605D4CA
:1016E0000B6823F00A030B6080F821200168A942EF
:1016F00001D1022219E0514501D1202215E0B14269
:1017000002D14FF4007210E0B94202D14FF40052FE
:101710000BE0594502D14FF4003206E0714502D189
:101720004FF4001201E04FF00072124908394A608C
:1017300080F82090816A00291AD0BDE8F05F084740
:10174000082505FA0CF5254212D01B0710D50B68A9
:1017500023F00E030B6090F84010C36B02FA01F106
:101760005960826380F8212080F82090016BE2E7C5
:10177000BDE8F09F080002401C000240300002401B
:1017800044000240580002406C00024030B528B3CB
:1017900008C8134914221944B1FBF2F18900C1634E
:1017A00010498163022141771A6843F6F0718A4338
:1017B000D0E900142143D0E902452C4321430469B8
:1017C0002143446921438469214311431960002165
:1017D0004163012242770177084630BD012030BDC8
:1017E000F8FFFDBF0000024070B5044690F82000ED
:1017F000002501280CD0012084F8200094F82160F5
:101800000020012E06D084F820000225284670BD55
:10181000022070BD022684F82160A063206806685B
:1018200026F0010606602046FFF728F9E06A002846
:101830002068016802D041F00E0106E021F00401A9
:1018400001602068016841F00A01016020680168B8
:1018500041F001010160D9E72DE9F84FDFF8B891B7
:101860000024A9F1040B23460F2709F1040AABF168
:10187000040EC9E00125A5402A40AA427DD1674E49
:10188000D1F804C0ACEB0608B44532D014DCBCF18E
:10189000030F3AD009DCBCF1000F2AD0BCF1010FD4
:1018A0001CD0BCF1020F31D11DE0BCF1110F17D0DB
:1018B000BCF1120F2AD119E0B8F5881F19D006DC47
:1018C000B8F5803F15D0B8F5801F1FD111E0B8F5ED
:1018D000001F0ED0B8F5041F18D10AE0CB6815E040
:1018E000CB681B1D12E0CB6808330FE0CB680C33CC
:1018F0000CE08B682BB1012B4FF0080303D045613E
:1019000004E0042302E0056100E00023FF2A01D87F
:10191000064601E000F104064FEA840501D9A5F16D
:101920002005D6F8008007FA05FC28EA0C0803FA1F
:1019300005F548EA0508C6F800804D68ED0062D557
:10194000374DAE6946F00106AE61AD6924F003067D
:1019500005F001050095334D06EB050CDCF8085049
:10196000A607360F07FA06F825EA0805DFF8B8805B
:10197000404503D14FF0000817E044E0DFF8AC80A9
:10198000404502D14FF001080FE0DFF8A480404548
:1019900002D14FF0020808E0DFF89880404502D1FC
:1019A0004FF0030801E04FF0040808FA06F848EA8F
:1019B0000508CCF808804D68D9F80060ED024D4666
:1019C00001D5164300E096432E604D68DAF80060BA
:1019D000AD02554601D5164300E096432E604D6892
:1019E000DBF80060AD035D4601D5164300E0964389
:1019F0002E604D68DEF80060ED03754601D5164394
:101A000000E096432E60641C0D682A46E5407FF492
:101A100031AFBDE8F88F000008040140000011104C
:101A2000001002400000014000080140000C01408D
:101A300000100140001401400AB10161704709041F
:101A4000FBE70000014880687047000000000020AC
:101A500002488168027811448160704700000020CC
:101A6000074810B5016841F010010160032000F043
:101A700075F80F2000F006F800F024F8002010BDE3
:101A80000020024070B50D4D04464FF47A7128785D
:101A9000B1FBF0F00A490968B1FBF0F001F048F839
:101AA00048B9102C07D200222146501E00F036F80B
:101AB00000206C6070BD012070BD0000000000209F
:101AC0000C0000200C4808B5816941F001018161DA
:101AD000816901F001010091C16941F08051C1614A
:101AE000C06900F0805000900448416821F0E06136
:101AF00041F00071416008BD00100240000001404B
:101B0000002809DB00F01F020121914040098000FC
:101B100000F1E020C0F8001170470000F0B40E4B57
:101B20001B680C46C3F30223C3F10705042D00D93B
:101B30000425191D072901D2002300E0DB1E012620
:101B400006FA05F1491E214099409E40761E164036
:101B50003143F0BC04F030BC0CED00E0064900F06D
:101B6000070208684FF6FF03184040EA0220034AC4
:101B700010430860704700000CED00E00000FA051B
:101B800010B50C0607D501F0070101EB810100EB50
:101B9000C100103005E001EB810100EBC10000F550
:101BA000A87099B232B1012202730181190C4181EE
:101BB000002010BD00220273C180F9E7704701EBDD
:101BC000810200EBC202D0F8D402526A03F0B5BA27
:101BD00001EB810200EBC202D0F8D402D2F86421FA
:101BE00003F00EBB70B504460B0601F0070000EBD6
:101BF000800104EBC1014FF001024FF0000502D556
:101C00004A74103103E081F8515101F5A871087050
:101C100094F89002012808D084F89022206803F0FC
:101C20003FFF84F89052002070BD022070BD70B557
:101C3000044601F00F002279904201D9012070BDC5
:101C40000B0601F0070000EB800104EBC1014FF02F
:101C500001024FF0000502D54A74103103E081F80B
:101C6000515101F5A8718D70087094F89002012807
:101C700008D084F89022206803F0AFFF84F89052D7
:101C8000002070BD022070BD2DE9F05F04685FEA9E
:101C9000424C0B788D69B4F850C04FF000064BF6FB
:101CA0008F7948F2800A48F68F7B48F2C00E4FF4D5
:101CB00080672AD54FF0020808EBC308C44407EB3D
:101CC0004C07E45BC4F30904A54203D32D1B8D61CB
:101CD00001D00BE08E61066836F8235005EA09054D
:101CE00085F4005545EA0A0526F82350520609D521
:101CF0000D78036833F8252002EA0B0242EA0E024F
:101D000023F8252084B30A8929E04FF0060808EB60
:101D1000C308C44407EB4C07E45BC4F30904A542C1
:101D200003D32D1B8D6101D00BE08E61066836F860
:101D3000235005EA090585F4005545EA0A0526F809
:101D40002350520609D40B78056835F8232002EA9F
:101D50000B0242EA0E0225F823202CB14A89496978
:101D60000068234604F022FA2046BDE8F09F2DE9E2
:101D7000F05F054600680C465FEA426C16468B69C8
:101D80002278B0F850C048F68F774CF280094FF4B3
:101D9000004B4FF6FF7E4FF4806A4FF0000172D582
:101DA0004FF0020808EBC208E0440AEB480C30F898
:101DB0000C00C0F30900834211D91B1AA3610FD094
:101DC000730407D52E6836F822303B4043EA0903F6
:101DD00026F8223094F82420012A47D052E1A1614C
:101DE000607810B1012813D01AE02868B0F850309C
:101DF000184400EB0210B0F80424C2F30902A0F862
:101E00000424B0F8042442F40042A0F8042407E0BB
:101E10002868B0F85030184400EB0210A0F8041401
:101E20006278286812B1012A11D018E0B0F8501079
:101E30000844217800EB0110B0F80C14C1F309013B
:101E4000A0F80C14B0F80C1441F4004105E0B0F80F
:101E500050201044227800EB0210A0F80C142178D6
:101E60002846FFF7ACFE700472D40BE162690244AD
:101E70006261E2690244E2612369226A9A4203D301
:101E80001846111A04E03EE084F824100AB1104606
:101E90002162617811B1012929D031E02968B1F8B6
:101EA00050201144227801EB0211B1F80424C2F34E
:101EB0000902A1F8042401F204413E2807D942098D
:101EC000C30600D1521E0B884BEA822207E048B1BC
:101ED0004208C30700D0521C0B880EEA822213432B
:101EE0000B800DE00A8842F400420A8008E029686D
:101EF000B1F850201144227801EB0211A1F804043A
:101F000083B22289BAE04FF0060808EBC208E04429
:101F10000AEB480C30F80C00C0F30900834211D3DF
:101F20001B1AA3610FD0730407D42E6836F8223031
:101F30003B4043EA090326F8223094F82420012A82
:101F400051D09FE0A161607818B1012814D01BE046
:101F50003FE02868B0F85030184400EB0210B0F8A9
:101F60000424C2F30902A0F80424B0F8042442F4C3
:101F70000042A0F8042407E02868B0F85030184464
:101F800000EB0210A0F804146278286812B1012A4C
:101F900011D018E0B0F850100844217800EB01107F
:101FA000B0F80C14C1F30901A0F80C14B0F80C142B
:101FB00041F4004105E0B0F850201044227800EBD5
:101FC0000210A0F80C1421782846FFF7F8FD7004E1
:101FD00058D42278296831F82200384040EA0900B4
:101FE00021F822004EE0626902446261E269024423
:101FF000E2612369226A9A4203D31846111A2162C8
:1020000004E00AB11046216284F82410627829683D
:1020100012B1012A28D02FE0B1F8502011442278C3
:1020200001EB0211B1F80C24C2F30902A1F80C244F
:1020300001F20C413E2807D94209C30600D1521EC5
:102040000B884BEA822207E048B14208C30700D060
:10205000521C0B880EEA822213430B800CE00A8884
:1020600042F400420A8007E0B1F85020114422787F
:1020700001EB0211A1F80C04628983B2616928683E
:1020800004F0B2F82278296831F8220048F6BF73CC
:10209000184080F0300048F28003184321F82200F5
:1020A0000020BDE8F09F2DE9F04104460F0601F045
:1020B000070000EB800104EBC1014FF001064FF077
:1020C000000502D54E74103103E081F8515101F53D
:1020D000A871022B08700A61CB7000D10D7194F8C1
:1020E0009002012809D084F89062206803F088FBF0
:1020F000284684F89052BDE8F0810220FBE710B535
:1021000001F0070404EB840100EBC101C1E959238C
:102110000022C1F86C2181F8512181F850410068FA
:1021200001F5A87103F0AEFD002010BD70B50446A6
:102130000D4601F007002179884201D9012070BDC8
:1021400029064FF000064FF0010206D500EB800192
:1021500004EBC1014A74103107E005EB850104EB83
:10216000C10181F8516101F5A8718A70087094F875
:102170009002012807D084F89022206803F069FDBE
:10218000680702D006E0022070BD04F526712068C1
:1021900003F021FD84F89062002070BD10B501F0BD
:1021A000070404EB840100EBC101C1E9092301220A
:1021B00081F834200B630023CB624A7401F8104F7E
:1021C000006803F05FFD002010BD00001FB504464D
:1021D000006803F0E7FF010403D5204601F061FF2A
:1021E0001FBD41050DD5206830F8441F21F48061E2
:1021F0000180204600F008F90021204600F01FF978
:102200001FBD410405D5206830F8441F21F48041EA
:1022100074E0810405D5206830F8441F21F4005192
:102220006CE0C10414D5206830F8401F21F004018F
:102230000180206830F8401F21F00801018020460D
:1022400000F0F5F8206830F8441F21F4805155E083
:10225000010540D5D4F800200020694632F820302E
:1022600021F81030401CC0B20828F7D332F8400FD4
:1022700040F001001080206830F8402F22F0010269
:1022800002802068B0F844205205FBD530F8442F76
:1022900022F4806202800020236831F8102023F8A5
:1022A0002020401CC0B20828F6D3206830F8401F18
:1022B00041F008010180206830F8441F21F40061DA
:1022C0000180206830F8401F41F004010180204661
:1022D00000F0E8F81FBD810509D5206830F8441FDB
:1022E00021F400710180204600F0A5F81FBDC00553
:1022F000FCD5206830F8441F21F4807101801FBD97
:102300002DE9F041040004D094F89102002518B1A1
:1023100007E00120BDE8F08184F89052204600F0EB
:102320004DF8032084F891026571206803F04CFC9D
:1023300094E80F0003F0B2FB022698BB002120684E
:1023400003F04AFF70BB002001270BE000EB800187
:1023500004EBC1014F740874CD740D624D62401CD2
:10236000C0B28D6221798142F0D8002012E000BF16
:1023700000EB800104EBC10181F8515181F850015B
:1023800081F85351C1F86051C1F86451401CC0B28A
:10239000C1F8685121798142EAD894E80F0003F02E
:1023A0000AFC10B184F89162B3E7657384F8917206
:1023B000206803F0FEFB0020ACE7000008B50068D1
:1023C0000F4988421AD10F48C16941F40001C16127
:1023D000C069002200F40000009011461320FFF7AE
:1023E0009DFB1320FFF78CFB002211461420FFF702
:1023F00095FBBDE808401420FFF782BB08BD000034
:10240000005C00400010024070B504468079012550
:10241000022801D0FEF748FB2946D4F8D40202F086
:10242000C7FFD4F8D402BDE8704002F083BFD0F8F3
:10243000D40202F0A7BFD0F8D40202F0ADBF10B5AD
:10244000044690F8900201280AD0012084F89002F6
:102450006173206803F0C2FE002084F8900210BD72
:10246000022010BDD0F8D42200F52671104602F0EB
:10247000ABBF10B5044690F89002012810D001209F
:1024800084F89002206803F06EFE01212046FFF7D9
:1024900095FB206803F08BFB002084F8900210BDB0
:1024A000022010BD10B50446D0F8D40202F0CBFFD4
:1024B000A07A002804D00348016841F006010160B9
:1024C00010BD000010ED00E010B501460020234CC7
:1024D000012922D0022939D010291DD16168226832
:1024E000D20119D51E48C1F38342C903805C0AD5C5
:1024F00061681B4AC1F34041921E515C194AB2FB0C
:10250000F1F1484301E0184948436168490203D4A6
:1025100040000321B0FBF1F010BD226AC2F301219B
:10252000012903D1920701D5C80310BD022905D1A5
:10253000626A920702D549F6404010BD0329FCD1DA
:1025400021688903F9D54FF2244010BD00F02AF923
:102550006168C1F38131491C4900DBE7001002408A
:10256000CE7F000800127A0000093D002DE9F843F3
:1025700005460078354CC00754D0E0690026C000FD
:1025800008D4E06940F08050E061E069012600F085
:10259000805000902E480168C90512D40168804619
:1025A00041F480710160FFF74DFA074605E000BF76
:1025B000FFF748FAC01B642823D8D8F80000C005EC
:1025C000F6D5206A10F4407021D0A98801F440713A
:1025D00081421CD0206A1F49012220F440700A6009
:1025E00000220A602062C00711D0FFF72BFA0746CD
:1025F00041F2883808E000BFFFF724FAC11B4145CB
:1026000002D90320BDE8F883206A8007F4D5206A48
:10261000696820F44070084320621EB1E06920F030
:102620008050E0612878800705D56068A96820F4AB
:102630004040084360602878C00605D56068E968B6
:1026400020F48000084360600020DBE700100240B7
:1026500000700040400442422DE9F0470F4605005B
:1026600061D0434E306800F00700B84209D23068AC
:1026700020F0070038433060306800F00700B842AF
:1026800051D128683B4C810712D5400703D56068BB
:1026900040F4E06060602878000703D5606840F48B
:1026A000605060606068A96820F0F00008436060D6
:1026B0002878C00728D06868012810D0216802282F
:1026C00010D0890700292EDA616821F00301014347
:1026D0006160FFF7B7F9804641F288390DE0216863
:1026E0008903EFE78901EDE7FFF7ACF9A0EB0801FB
:1026F000494502D90320BDE8F0876068696800F0A9
:102700000C00B0EB810FEFD1306800F00700B84249
:102710000BD9306820F0070038433060306800F093
:102720000700B84201D00120E5E72878400705D529
:102730006068E96820F4E06008436060287800077A
:1027400006D56068296920F4605040EAC1006060E5
:1027500000F038F86168084AC1F30311515CC840C1
:102760000649086006480068FFF78CF90020C2E7B8
:102770000020024000100240DE7F00080C00002014
:10278000040000200448054900684968044AC1F370
:102790000221515CC84070470C000020001002402C
:1027A000EE7F00080448054900684968044AC1F3FF
:1027B000C221515CC84070470C000020001002404C
:1027C000EE7F00080E4A51680E4801F00C03042BFE
:1027D00011D0082B0FD10C48C1F38343C903C05C4F
:1027E0000AD55168084AC1F34041921E515C054A1E
:1027F0005043B0FBF1F07047044948437047000074
:102800000010024000127A00BC7F000800093D0061
:102810002DE9F84F040070D02078C04DC00749D092
:102820006868C0F38100012807D06868C0F38100A0
:10283000022809D16868C00306D52868800339D505
:1028400060680028E7D035E06068B0F5803F0BD0C5
:1028500010B1B0F5A02F11D0286820F48030286086
:10286000286820F4802002E0286840F48030286046
:10287000606890B1FFF7E6F806460AE0286840F481
:1028800080202860F0E700BFFFF7DCF8801B642899
:1028900073D828688003F7D50CE0FFF7D3F8064615
:1028A00005E000BFFFF7CEF8801B6428F0D8286849
:1028B0008003F7D420789A4E80074FF001094FF03B
:1028C000000839D5686810F00C0F07D06868C0F3AD
:1028D0008100022809D16868C00306D428688007EF
:1028E00014D52069012808D110E02069B0B1C6F8DC
:1028F0000090FFF7A7F8074605E00AE1FFF7A2F806
:10290000C01B0228C4D828688007F7D528686169E9
:1029100020F0F80040EAC10028600DE0C6F8008011
:10292000FFF790F8074604E0FFF78CF8C01B022879
:1029300023D828688007F7D4207800072CD5794859
:10294000A169D9B1C0F80090FFF77CF8074604E010
:10295000FFF778F8C01B02280FD8686A8007F7D500
:1029600071484FF4FA510068B0FBF1F0009000BFDD
:102970000098411E0091FAD20EE080E0C0F800807D
:10298000FFF760F8074604E0FFF75CF8C01B022879
:1029900075D8686A8007F7D42078400760D5E86961
:1029A0000027C00008D4E86940F08050E861E86979
:1029B000012700F0805000905C480168C90513D4DD
:1029C0000168834641F480710160FFF73BF882465D
:1029D00006E000BFFFF736F8A0EB0A0064284ED8E7
:1029E000DBF80000C005F5D5E06801280AD008B181
:1029F000052813D0286A20F001002862286A20F0F8
:102A0000040002E0286A40F001002862E06841F218
:102A1000883B98B1FFF716F882460BE0286A40F031
:102A200004002862EEE700BFFFF70CF8A0EB0A01F4
:102A300059455AD8286A8007F6D50CE0FFF702F806
:102A4000824605E0FEF7FEFFA0EB0A0159454CD88F
:102A5000286A8007F6D41FB1E86920F08050E86149
:102A6000E06988B36968C1F38101022944D0022872
:102A7000C6F8608004D0FEF7E5FF044638E034E095
:102A8000FEF7E0FF074604E0FEF7DCFFC01B02286C
:102A90002BD828688001F7D4206AB0F5803F05D193
:102AA0006868A16820F4003008436860D4E9080130
:102AB0000843696821F4741108436860C6F860909F
:102AC000FEF7C0FF044606E025E000BFFEF7BAFFB0
:102AD000001B022809D828688001F7D51BE000BF39
:102AE000FEF7B0FF001B022802D90320BDE8F88FD3
:102AF00028688001F4D40EE00128F7D06868226AC3
:102B000000F48031914204D1616A00F4701088426F
:102B100001D00120EAE70020E8E7000000100240B1
:102B200000004242800442420C000020007000403D
:102B300010B5401EB0F1807F01D3012010BD4FF0D1
:102B4000E02460610F21601703F036FC0020A061D3
:102B500007202061002010BD7047704770B590F8C5
:102B60003C20012A26D0012480F83C40022280F833
:102B70003D2003685A689D6822F070060A68324357
:102B80005A600D4B02689A4208D0B2F1804F05D0CE
:102B90000A4B9A4202D00A4B9A4204D1496825F066
:102BA00080031943916080F83D40002180F83C107B
:102BB000084670BD022070BD002C0140000400409A
:102BC0000008004010B5040003D094F83D0010B197
:102BD00007E0012010BD002084F83C00204600F0F2
:102BE0001FF8022084F83D00211D206801F052FEEC
:102BF000012084F8460084F83E0084F83F0084F801
:102C0000400084F8410084F8420084F8430084F8CE
:102C1000440084F8450084F83D00002010BD000009
:102C200008B5174A01681748914211D1816941F4EA
:102C3000006181618069032200F40060009001213D
:102C40001920FEF76BFFBDE808401920FEF758BFBA
:102C5000B1F1804F0BD00C4A914207D1C16941F0CC
:102C60000201C161C06900F00200009008BDC169A5
:102C700041F00101C161C06900F00100F5E7000009
:102C8000002C0140001002400004004090F83D106C
:102C9000012901D001207047022180F83D10016810
:102CA000CA6842F00102CA6000680B49884208D035
:102CB000B0F1804F05D00949884202D008498842C6
:102CC00004D1816801F00701062903D0016841F0B1
:102CD0000101016000207047002C01400004004009
:102CE0000008004070B5044690F83C00002501281B
:102CF00017D0012684F83C60022084F83D0020684B
:102D0000826822F0770222F47F42826008685028AD
:102D100038D00DDC20284FD005DC90B3102811D11D
:102D20004AE0022070BD302846D040280AD13BE05E
:102D300060282FD070280DD0B0F5805F03D0B0F59B
:102D4000005F12D0012584F83D60002084F83C002B
:102D5000284670BDCB68D1E90121206801F0E3FD70
:102D60002068816841F0770109E0CB68D1E9012151
:102D7000206801F0D8FD2068816841F480418160BD
:102D8000E1E719E0CA684968206801F081FE502136
:102D9000206806E0CA684968206801F08AFE602160
:102DA000206801F0CAFDCEE7CA684968206801F0D2
:102DB0006FFE40212068F4E7226801461046F0E7E4
:102DC00070472DE9F04104460068C66805694FF078
:102DD0000007A90713D5B10711D5F91E016101201C
:102DE0002077206880698007204602D0FFF7E8FF3F
:102DF00004E000F0C7F8204600F059F9277768078B
:102E000016D5700714D521686FF004000861022000
:102E100020772068806910F4407F204602D0FFF7B9
:102E2000CFFF04E000F0AEF8204600F040F927772D
:102E3000280715D5300713D521686FF00800086101
:102E4000042020772068C0698007204602D0FFF761
:102E5000B7FF04E000F096F8204600F028F9277745
:102E6000E80616D5F00614D521686FF01000086149
:102E7000082020772068C06910F4407F204602D0E7
:102E8000FFF79EFF04E000F07DF8204600F00FF908
:102E90002777E80708D0F00706D021686FF0010017
:102EA0000861204600F052F9280608D5300606D5FC
:102EB00021686FF0800008612046FFF74DFE68062C
:102EC00008D5700606D521686FF0400008612046DD
:102ED00000F046F9A8060AD5B00608D521686FF0BB
:102EE000200008612046BDE8F041FFF736BEBDE88E
:102EF000F081000010B586B000210091019102918F
:102F0000039102681B4902241B48B2F1804F23D071
:102F10001A4B9A421ED18A6942F004028A618A6978
:102F200002F0040204928A6942F008028A61896907
:102F3000039401F008010491C021CDE90014694611
:102F4000FEF78AFC0320CDE9000469460C4803948F
:102F5000FEF782FC06B010BD8A6942F004028A6165
:102F60008969039401F0040104910F21CDE9001453
:102F70006946EDE7001002400008014000040040EF
:102F8000000C0140704770B5044690F83C000026E4
:102F90000D4601280FD0012084F83C006AB1042AB4
:102FA0001DD0082A2FD00C2A3FD00126002084F8FB
:102FB0003C00304670BD022070BD206801F0C6FCA8
:102FC0002068816941F0080181612068816921F0F0
:102FD00004018161206881692A69114311E0206838
:102FE00001F0DCFC2068816941F4006181612068A6
:102FF000816921F480618161206881692A6941EADF
:1030000002218161D2E7206801F0F4FC2068C169E7
:1030100041F00801C1612068C16921F00401C1616A
:103020002068C1692A69114311E0206801F00EFD92
:103030002068C16941F40061C1612068C16921F45F
:103040008061C1612068C1692A6941EA0221C161C8
:10305000ACE710B5040003D094F83D0010B107E0D0
:10306000012010BD002084F83C00204600F01EF82E
:10307000022084F83D00211D206801F00BFC012096
:1030800084F8460084F83E0084F83F0084F840004D
:1030900084F8410084F8420084F8430084F8440036
:1030A00084F8450084F83D00002010BD704770474B
:1030B00010B50446022249B104290ED0082913D0C4
:1030C00094F84100012816D0012010BD94F83E006C
:1030D0000128F9D184F83E200FE094F83F00012840
:1030E000F2D184F83F2008E094F840000128EBD1A9
:1030F00084F8402001E084F841200122206801F09A
:1031000005FC0F492068884203D1426C42F400421A
:1031100042642068884208D0B0F1804F05D0094948
:10312000884202D00849884204D1816801F0070131
:10313000062903D0016841F001010160002010BDA3
:10314000002C0140000400400008004000680349D2
:10315000884201D101F0A8BA70470000002C01405C
:103160007047704770470000F8B50168044608686A
:10317000CA684B6910F00F0F4FF0000559D003F0EB
:10318000010602F49077374365D0C10705D0D10519
:1031900003D5616C41F001016164410705D5D90790
:1031A00003D0616C41F002016164810705D5D90744
:1031B00003D0616C41F004016164010707D502F09E
:1031C0002001314303D0616C41F008016164616CFE
:1031D00000293AD0800604D5900602D5204601F099
:1031E000A9FC20684069616CC0F38010090700D415
:1031F00060B3204601F077FC20684069400621D585
:103200002068143050E8001F21F0400140E800120F
:10321000002AF5D1E06BA8B16D494163E06BFEF780
:10322000BFF9002811D0E06B416B01B0BDE8F04060
:10323000084783060FD593060DD52046BDE8F84014
:1032400001F078BC2046FFF78DFFF8BD2046FFF760
:1032500089FF6564F8BD266B2023012E7CD1C6064C
:103260007AD5D60678D508684868009048694FF046
:103270000206400640D5E16B086840680004000C77
:10328000E8D0A28D8242E5D9E085886920282DD03A
:1032900020680C3050E8001F21F4807140E80012D3
:1032A000002AF5D12068143050E8001F21F00101F8
:1032B00040E80012002AF5D12068143050E8001FC1
:1032C00021F0400140E80012002AF5D184F8423094
:1032D000256320680C3050E8001F21F0100140E801
:1032E0000012002AF5D1E06BFEF736F96663A08D77
:1032F000E18D401A81B22AE0A08DE18D401A81B2A1
:10330000E08D0028A6D00029A4D022680C3252E813
:10331000000F20F4907042E80007002FF5D12068DC
:10332000143050E8002F22F0010240E80027002F5F
:10333000F5D184F84230256320680C3050E8002F26
:1033400022F0100240E80023002BF5D166632046EE
:10335000FFF707FFF8BDFFE705062BD5150629D5B2
:1033600094F841002128F5D1A068B0F5805F01D123
:103370002069B0B1206A411C216221680078486050
:10338000E08C401E0004000CE084E3D12068C1689A
:1033900021F08001C1602068C16841F04001C16036
:1033A000D8E7206A0088C0F308004860206A801CC3
:1033B0002062E5E74006CDD55006CBD5CA68204649
:1033C00022F04002CA6084F8413000F090F8C1E772
:1033D000D74A000870B5040004D094F841000025D5
:1033E00010B106E0012070BD84F84050204600F086
:1033F00023F8242084F841002068C16821F400519A
:10340000C160204601F0F8FB2068016921F4904179
:1034100001612068416921F02A0141612068C16889
:1034200041F40051C1606564202084F8410084F8B3
:1034300042006563002070BD70B586B00025064669
:10344000009501950295039500682349884241D172
:103450002249886940F480408861886900F480408E
:103460000490886940F00400886188691C4C00F071
:10347000040004904815009002200190032003905E
:1034800069462046FEF7E8F92015CDE900056946B2
:1034900020460295FEF7E0F9134C124820601020F8
:1034A000C4E901058020C4E903054FF4405065617B
:1034B000C4E906502046FEF769F908B1FDF7F4FAB1
:1034C000B4630022114625206662FEF727FB252003
:1034D000FEF716FB06B070BD003801400010024038
:1034E0000008014044000240C403002070477047B8
:1034F000FEE700000C4A10B54021116000F0B2F860
:10350000094C8020241F206000F0ACF8216000F0FE
:10351000A9F800F0A7F800F0A5F800F0A3F81160F2
:10352000BDE8104000F09EB8140C0140F0B5114EFB
:1035300008220021802030600E4F4024351D083FB6
:1035400012E04806010E2C6000F08CF800F08AF8BA
:10355000346000F087F800F085F800F083F83868F0
:10356000000601D541F00101521ED2B2E9D22C6011
:103570000846F0BD100C0140F0B50F4A0821802725
:1035800040260446151F11E000F06CF8200601D516
:103590002F6000E017606006040E00F063F82E60F4
:1035A00000F060F800F05EF800F05CF8491EC9B267
:1035B0001660E9D2F0BD0000140C014030B50C4893
:1035C000802404604021016000F04CF8084A083A69
:1035D0001068074D2D1D2C6000F044F8106800069F
:1035E00001D5012030BD296000F03CF8002030BD3D
:1035F000100C014010B50A4C4021216000F032F857
:103600008022226000F02EF800F02CF8241F2160A8
:1036100000F028F82260BDE8104000F023B8000058
:10362000140C01400E4910B540220A6000F01AF84F
:103630000B4C8020241F206000F014F8226000F062
:1036400011F800F00FF800F00DF805480C3800688C
:103650000A60000601D5012010BD002010BD000049
:10366000140C014008B502208DF800009DF8000000
:10367000002803D09DF80000401EF5E708BD704704
:1036800070B50D460446FFF799FF01281FD020466C
:10369000FFF772FFFFF7C6FF012819D02846FFF792
:1036A0006BFFFFF7BFFFFFF7A5FFFFF787FF641C66
:1036B000E0B2FFF761FFFFF7B5FF012808D0FFF781
:1036C00035FF0446FFF716FFFFF794FF60B270BDA9
:1036D000FFF790FF012070BD70B514460D460646F9
:1036E000FFF76CFF012813D03046FFF745FFFFF7C7
:1036F00099FF01280DD02846FFF73EFFFFF792FF04
:103700002046FFF739FFFFF78DFFFFF773FF00201B
:1037100070BDFFF76FFF012070BD00002DE9F0477D
:103720001C4615460F460646FFF748FF01283ED0C7
:103730003046FFF721FFFFF775FF012834D03846E8
:10374000FFF71AFFFFF76EFFFFF754FFFFF736FF93
:10375000761CF0B2FFF710FFFFF764FF012823D0BB
:10376000174E40274FF08008A6F1040924B3FFF755
:10377000DDFE2870012C1CD03760FFF773FFC6F800
:103780000080FFF76FFFC9F80070FFF76BFFFFF7CE
:1037900069FFFFF767FFFFF765FF3760FFF762FF1D
:1037A000641EE4B26D1CE1E7FFF724FF0120BDE8D1
:1037B000F087FFF79FFEF3E7FFF71CFF0020F6E717
:1037C000140C0140F0B500230A24302537261F468B
:1037D00011E000BFB4EB107F02D905EB107C01E0D3
:1037E00006EB107C01F813C001EB430C00015B1CDD
:1037F0008CF80170DBB29342ECD3F0BD3EB50025EE
:103800001148009501950F49029501608915816065
:1038100001240473057545604FF460210461C161A2
:10382000FDF73EFD08B1FDF73FF905208DE83100B9
:1038300069460548FDF7B2FC002801D0FDF734F9D0
:103840003EBD000000240140300200200D4808B5B4
:10385000416941F0010141614069002200F001002D
:10386000009011460B20FEF759F90B20FEF748F99E
:10387000002203210E20FEF751F9BDE808400E207A
:10388000FEF73EB9001002402DE9F04385B0002458
:1038900025480094019402940394816941F0200129
:1038A0008161816901F020010491816941F0040185
:1038B0008161816901F004010491816941F008018D
:1038C00081618069DFF8648000F008004BF2C01568
:1038D0000490002229464046FEF7AEF8DFF85090EB
:1038E0004FF40047002239464846FEF7A5F80095F8
:1038F000022601250396CDE9015469464046FDF7AD
:10390000ABFFA803CDE90004694640460294FDF7E9
:10391000A3FF00970396CDE9015469464846FDF799
:103920009BFF05B0BDE8F08300100240000C014091
:103930000008014010B586B0002418480094019496
:1039400002940394049414490594016040F2CF2139
:10395000C0E9011440F22B11C0E9031444618461F1
:10396000FFF730F908B1FDF79FF84FF48050009051
:1039700069460A48FFF7B6F908B1FDF795F80494CF
:1039800004A906480594FFF7E9F8002801D0FDF7DF
:103990008BF806B010BD0000002C0140A4020020EE
:1039A00030B58DB000240794089409940A940B94C0
:1039B0001C2168460C94FCF76CFC2A484FF08041AF
:1039C00040F2E73502C0082132C040F81049846156
:1039D0002448FFF7F7F808B1FDF766F84FF4805078
:1039E000079007A91F48FFF77DF908B1FDF75CF8BC
:1039F0001C48FFF72EFB08B1FDF756F80B940BA9F6
:103A000018480C94FFF7AAF808B1FDF74DF86020AC
:103A10000090CDE901540022694612480494FFF752
:103A2000B2FA08B1FDF740F8042269460D48FFF7E5
:103A3000AAFA08B1FDF738F8082269460948FFF7E5
:103A4000A2FA08B1FDF730F80C2269460548FFF7E5
:103A50009AFA08B1FDF728F80248FFF74BFA0DB0C3
:103A600030BD0000EC02002030B58DB0002407947A
:103A7000089409940A940B941C2168460C94FCF752
:103A800008FC2A48284940F2E73502C0232132C009
:103A900040F8104984612548FFF794F808B1FDF714
:103AA00003F84FF48050079007A92048FFF71AF950
:103AB00008B1FCF7F9FF1D48FFF7CBFA08B1FCF796
:103AC000F3FF0B940BA919480C94FFF747F808B1C2
:103AD000FCF7EAFF60200090CDE90154002269461E
:103AE00012480494FFF74FFA08B1FCF7DDFF0422F7
:103AF00069460E48FFF747FA08B1FCF7D5FF0822E0
:103B000069460A48FFF73FFA08B1FCF7CDFF0C22DF
:103B100069460648FFF737FA08B1FCF7C5FF0348C6
:103B2000FFF7E8F90DB030BD000400403403002079
:103B30000C4810B50A4901604FF461314160002121
:103B400081600C22C160C0E904128161C161FFF78C
:103B500041FC002803D0BDE81040FCF7A5BF10BD14
:103B6000003801407C03002010B500220B490C48AE
:103B700001F0BCFA08B1FCF797FF0A49084801F0C8
:103B800088FC08B1FCF790FF054801F0D7FC00283D
:103B900003D0BDE81040FCF787BF10BD1000002027
:103BA0000804002060000020FEE700002DE9F05F1F
:103BB0007E4908787E4E08B9FF20707072787D4883
:103BC00000277D4C80884FF0020A012A06D0022A85
:103BD0000CD01F2A17D0FF2A62D1BAE0E780A78055
:103BE00067802780097809B186F801A040F24C412E
:103BF000884255D96E487780B7800621083002F098
:103C0000EAFF1F204BE0A0F57A7000B2804603F077
:103C1000BFFF6A4903F0E8FF694903F073FE03F050
:103C20009BFF05B2B8F10A0F3BDAB08840F2DC51D5
:103C3000884201D2401CB080B088B146834603F070
:103C400047FB4FF033325F4B03F056FB0646884686
:103C5000284603F026FB4346324603F03DFD03F0C1
:103C6000F1FA05B2584840F2BB21B0F90400A0F5C2
:103C7000F0507938884215D20BF1010080B24E46DF
:103C8000A9F80400B0F5167F0CD949480621083080
:103C900002F0A1FFE780A780678027805046707000
:103CA0004FE0B780002D01DA002504E04FF42F70BB
:103CB000854200DD0546454EB16A454FB86A03F0BE
:103CC00021FEDFF81081D8F8281003F01BFE814692
:103CD000284603F05DFF0546494603F013FE03F056
:103CE0003BFF2080B16AB86A04F054F8D8F8281075
:103CF00004F050F80146284603F004FE03F02CFFC0
:103D00006080B96AB06A04F045F8D8F8281004F069
:103D100041F80146284603F0F5FD03F01DFFA080A1
:103D2000B86AB16A80F0004004F034F8D8F828107E
:103D300003F0E8FD0146284603F0E4FD03F00CFF24
:103D4000E080B4F900104FF47A70002907DA0021FE
:103D500008E0E780A7806780278001209FE78142F5
:103D600000DD01464FF080425163B4F90210002992
:103D700001DA002102E0814200DD01469163B4F9DD
:103D80000410002901DA002102E0814200DD014631
:103D9000D163B4F90610002901DA002002E0814263
:103DA00000DC08461064BDE8F09F00007C010020A4
:103DB000980100206C0100207E010020CDCC0C3F3A
:103DC0000000C8423333E33FB80B0020040C00204E
:103DD000D00B0020380C00202DE9FE4F06236A4648
:103DE0003B21D020FFF79AFC6D4606234321D020CB
:103DF000AA1DFFF793FCDFF89CA0DFF89C9000243D
:103E0000A84600BF38F814004D4641BA3AF81400ED
:103E1000091AD9F8000020F81410032C13D230F935
:103E2000140003F0B5FE01461B4804EB4402001DDC
:103E300000EBC200064602F075FEB06803F08CFE8F
:103E4000296821F81400022C1ED92F68E01EC6B282
:103E5000DFF848B037F9140003F09AFE594603F032
:103E6000C3FEDFF830B005460BF10C0B0C495BF8D4
:103E7000260003F0B9FE294603F044FD4BF8260066
:103E800003F06AFE27F81400641CE4B2062CB9D3D0
:103E9000BDE8FE8FDC0E0020E40100209A99193E57
:103EA0009A99593F70B50024642002F013FE8022D5
:103EB0006B21D020FFF710FC05461E2002F00AFE01
:103EC00002221921D020FFF707FC054403226B21B1
:103ED000D020FFF701FC054403221A21D020FFF770
:103EE000FBFB054418221B21D020FFF7F5FB0544FE
:103EF00009221C21D020FFF7EFFB284410F0FF0F10
:103F000004F1010401D00A2CD1DB7521D020FFF788
:103F1000B7FBC0B2682801D0012070BD062102485D
:103F2000FCF7C4FD002070BDDC0E0020FEE70000A1
:103F30001FB50FA10522D1E90001CDE9020102A9B7
:103F4000302000F071F805226946102000F024F8B6
:103F5000002069460A5CA52A03D1401CC0B205288E
:103F6000F8D3052802D0012004B010BD0020FBE7E3
:103F7000A5A5A5A5A500000070B5064C4FF4807559
:103F80002560A614266000F0D1FB201D0560266088
:103F900070BD0000100C01402DE9F04188460C492D
:103FA0004FF4805615460E6000F0CAFB0746002409
:103FB00006E0FF2000F0C4FB08F80400641CE4B233
:103FC000AC42F6D30248001F06603846BDE8F081D7
:103FD000140C014010B506494FF480540C6000F0F9
:103FE000AFFBFF2000F0ACFB0149091F0C6010BDC6
:103FF000140C014070B505460720FFF7EBFF04469F
:104000000146272000F02EF860060AD52022294616
:104010006120FFF7C1FFFF21E22000F023F800201C
:1040200070BD012070BD00002DE9F0410D460C4926
:104030004FF4805716460F6000F082FB8046002444
:1040400006E000BF15F8010B00F07AFB641CE4B237
:10405000B442F7D30248001F07604046BDE8F08134
:10406000140C014070B50E4607494FF480540C60A3
:1040700000F066FB0546304600F062FB0248001F78
:104080000460284670BD0000140C014010B5FFF715
:1040900073FF00BF00F020FBFFF74AFF0128F9D0B3
:1040A00010BD2DE9F84F044640F68F7B48F60F7996
:1040B0004FF480684FF0000ABDE1B0F8441011F0F1
:1040C0000F0539D030F8256031047ED530F8251041
:1040D00001EA0B0141F0800120F8251005EB850075
:1040E00004EBC00797F85C0107F5A87700286DD0AE
:1040F000F87802286BD03978226832F8210048F627
:104100008F73184048F2C003184322F82100397811
:10411000206830F82120B0F8503052047DD50222BA
:1041200002EBC1015A1808EB4201415A8905890D79
:10413000009173D03A89DDE0C9062BD4018801EAE9
:10414000090141F400410180206804F11005B0F834
:104150005030217C022202EBC1015A1808EB4201C7
:10416000405AC0F30900E062616A084460620021BD
:104170002046FDF724FD607B00289DD0A86900281B
:104180009AD1607B216840F08000A1F84C0084F84F
:104190000DA050E1018804F5A8750A0521D5B0F8F5
:1041A00050202B78062101EBC3010A4408EB4201A1
:1041B000405A04F52671C0F30903EB61EA882068D0
:1041C00001F0F4FF2068018802E0AEE06EE07EE0DE
:1041D00001EA0B0141F0800101802046FEF742F91F
:1041E00029E10904D5D5018801EA0B0141F08001DC
:1041F00001802068B0F850202B78062101EBC30124
:104200000A4408EB4201405A83059B0DEB6110D034
:10421000696971B1EA88206801E05FE05DE001F062
:10422000C5FFE96968690844686100212046FDF717
:10423000CFFC216808880205ABD4C0F30130032805
:10424000A7D0B1F850000844B0F80C14C1F309012C
:10425000A0F80C142A6900F20C403E2A09D9510931
:10426000D20600D1491E02884FF4004343EA81215F
:1042700009E0B2B15108D20700D0491C02884FF6BC
:10428000FF7303EA81210A430280216808884BF604
:104290008F72104080F4405048F280021043088032
:1042A000C9E0018841F400410180EEE72068B0F8E0
:1042B00050203B78062101EBC3010A4408EB420180
:1042C000415A8905890D009118D0FA8812E03246CA
:1042D00039462046FDF7D8FC00900FE0062202EB9D
:1042E000C1015A1808EB4201415A8905890D009114
:1042F00004D07A897969009B01F058FFF869009928
:104300000844F8617969009808447861B86918B17F
:1043100039690098814204D939782046FDF758FC64
:1043200003E03946206801F0ADFC30062ED505EBE0
:10433000850004EBC001206830F8252002EA09025C
:1043400042F4004220F82520C87C103101281ED0FC
:10435000F0056CD42068B0F850300D78022202EBE2
:10436000C5021A4408EB4202805A8A69C0F3090068
:10437000824255D9121A8A6154D04A6902444A616C
:10438000CA691044C861206801F07CFC53E0C1F8A0
:1043900018A0087B524608B3700620D5487810B1A3
:1043A000012812D03AE02068B0F8502010440A7872
:1043B00000EB0210B0F80424C2F30902A0F80424B0
:1043C000B0F8042442F4004206E02068B0F850300F
:1043D00018440B7800EB0310A0F804241EE04B787F
:1043E000206813B1012B11D018E0B0F85020104410
:1043F0000A7800EB0210B0F80C24C2F30902A0F80E
:104400000C24B0F80C2442F4004205E0B0F850301F
:1044100018440B7800EB0310A0F80C24097802E094
:10442000C1F818A0E9B22046FDF7C9FB03E0324607
:104430002046FDF79CFC2068B0F8441009043FF5C5
:104440003CAE0020BDE8F88F7047000070B51E48F4
:1044500002681E490D464B68D21A2B889A4210D327
:10446000006848601A491A4BAE7808330C1D1A1DB3
:104470003EB340F2E730012E04D0022E06D00120D8
:10448000A87070BD08601860206018E00D68854253
:1044900001D1002500E005460D601968814201D177
:1044A000002100E0014619602168814201D100210C
:1044B00000E0014621601168814200D100201060B7
:1044C00070BD0020DEE7000008000020DC010020B5
:1044D0003404004070B504464FF07F554FF0FF3173
:1044E00003F02DFD0849A1EB6404214603F07CFB99
:1044F000214603F079FB294603F042FC2146BDE842
:10450000704003F071BB0000DF59375F2DE9F041C7
:104510005C48FFF76FFD5C49002368B14888401C88
:1045200080B24880B0F5FA7F75D958484B80037047
:10453000BDE8F041FFF7AABD4B800022514910466B
:104540000B5C401C1A44C0B2D2B21F28F8D3C87FFB
:10455000904260D10878AA285DD14878AF285AD116
:1045600088884FF47A7746BA49487C00BE42068074
:1045700001D23E4602E0A64200D926460680CA88FD
:1045800052BA4280BA4201D23A4602E0A24200D96F
:10459000224642800B895BBA8380BB4201D23B46F4
:1045A00002E0A34200D9234683804B895DBAC580CF
:1045B000BD4201D23D4602E0A54200D92546C58054
:1045C0008B895BBA0381BB4201D23B4602E0A34226
:1045D00000D923460381CB8993FA93FCA0F80AC043
:1045E000BC4501D2BC4602E0A44500D9A446A0F8CF
:1045F0000AC00B8A5BBA8381BB4201D23B4602E010
:10460000A34200D923468381498A4BBAC381BB4266
:1046100002D23B4605E032E04FF47A618B4200D98A
:104620000B46C381A2F2DC521A4C1B4F504203F0DE
:10463000AFFA214603F0D8FA18490860A6F2DC5612
:10464000704203F0A5FA214603F0CEFA144908603F
:1046500040F21C70134C854204D92068394603F09F
:1046600099FB07E040F29C40854204D2206839461D
:1046700003F048F92060BDE8F04102F017BBBDE847
:10468000F0810000B00E0020B80100207C01002065
:104690006C0100200AD7233D9A99993E6C0C0020AA
:1046A000A00C0020D40C002010B5FFF795FB074CA0
:1046B000074922460748FCF7B9FAFFF727FF2046CB
:1046C000FCF706FABDE81040FFF770BAA69B443B22
:1046D000C40B0020B80B002010B512484FF48074B2
:1046E0000460052210492A20FFF79EFC00212120AA
:1046F000FFF7B8FC01212220FFF7B4FC012125209F
:10470000FFF7B0FC20213120FFF7ACFC0721262069
:10471000FFF7A8FC0F212020FFF7A4FC0148001F91
:10472000046010BD140C01400480000803494FF4DC
:10473000005008608000091F08607047140C014099
:10474000F0B50246104D0020DFF83CC06C14014665
:104750004FF40046ACF1080C2B1D1C60170601D568
:104760002E6000E01E605206120E4006000E2C6005
:10477000DCF800707F0401D5401CC0B21C60491CED
:10478000C9B20829E9D3F0BD100C01407047FDF70C
:104790005FB930B593B028216846FBF77AFD142144
:1047A0000AA8FBF776FD002401200F9410941194C1
:1047B000010412948DE8130004904FF4E010CDE949
:1047C0000810022507956846FEF722F808B172B670
:1047D000FEE70F20CDE90A054FF48060CDE90C40DB
:1047E00002210AA80E94FDF737FF08B172B6FEE762
:1047F00012200F904FF40040CDE911040FA8FDF7EF
:10480000B5FE002801D072B6FEE713B030BD704788
:104810000148FEF73BBA0000A40200200148FEF761
:10482000D0BA0000A402002010B500210848FEF70D
:104830003FFC04210648FEF73BFC08210448FEF734
:1048400037FCBDE810400C210148FEF731BC0000E8
:10485000EC02002010B500210D48FEF729FC0421D0
:104860000B48FEF725FC08210948FEF721FC0C2126
:104870000748FEF71DFC064840F2E7310268516325
:10488000026891630268D1630068016410BD000092
:1048900034030020F0B50268194B1A4C1A4D4FF042
:1048A0008047984205D0B84203D0A04201D0A84228
:1048B00003D122F070064A683243984205D0B842CC
:1048C00003D0A04201D0A84203D122F44074CA68A8
:1048D00022434C6922F08002224302608A68C2624D
:1048E0000A688262984201D109690163012141612C
:1048F0000169C90703D0016921F001010161F0BD1F
:10490000002C0140000400400008004010B501F0F8
:104910001F030121046A99408C430462016A9A4092
:104920001143016210BD10B5846842EA032224F4E9
:104930007F440A432243826010BD826822F07002E5
:104940000A4342F0070181607047000030B5036AF6
:10495000026A22F0010202624268846924F073054F
:104960000C682C4323F002058B682B430A4DA842A8
:104970000BD123F00805CB6822F440722B434D691C
:1049800023F0040315438A692A434260846149681D
:104990004163036230BD0000002C014030B5026A63
:1049A000036A23F010030362436884690D6824F4EA
:1049B000E64444EA05248D6822F0200242EA05120A
:1049C0000B4DA8420ED1CD6822F0800242EA0512BA
:1049D0004D6923F4406343EA85038D6922F0400268
:1049E00043EA85034360846149688163026230BDA4
:1049F000002C014030B5036A026A22F48072026220
:104A00004268C46923F4007324F073050C682C43D6
:104A10008D6843EA05230C4DA8420ED1CD6823F4DE
:104A2000006343EA05234D6922F4405242EA05122D
:104A30008D6923F4806342EA05124260C4614968CB
:104A4000C163036230BD0000002C014030B5046A30
:104A5000026A22F4805202624268C3690D6823F43C
:104A6000E64343EA05238D6824F4005444EA053400
:104A7000064DA84204D14D6922F4804242EA8512D3
:104A80004260C36149680164046230BD002C01408A
:104A900010B5036A046A24F001040462846924F0F6
:104AA000F00444EA021423F00A020A438461026219
:104AB00010BD10B5036A046A24F01004046284690E
:104AC00023F0A00324F4704444EA023243EA0111C3
:104AD0008261016210BD10B5406A0021C185C184A8
:104AE000FEF740FB10BD01680C3151E8002F22F4A5
:104AF000907241E80023002BF5D10168143151E890
:104B0000002F22F0010241E80023002BF5D1016BB8
:104B1000012909D101680C3151E8002F22F010025F
:104B200041E80023002BF5D1202180F8421000211C
:104B30000163704708B590F84210222901D0022085
:104B400008BD82684FF480539A4201D1016921B1B6
:104B5000816A9A421BD04AB10AE00268816A5268AF
:104B6000C2F308020A80816A891C08E0026972B1F6
:104B70000268526802F07F020A70816A491C8162F1
:104B8000C18D491E0904090CC18503D01BE00268D0
:104B90005268F1E70168CA6822F02002CA60016821
:104BA000CA6822F48072CA6001684A6922F0010270
:104BB0004A61202180F8421000214163026B012AE2
:104BC00003D0FEF793FC002008BD016301680C319F
:104BD00051E8002F22F0100241E80023002BF5D10C
:104BE00001680A68D20602D50A6849680091818D79
:104BF000FEF7B7FAE7E7000070B504460068016900
:104C0000E26821F44051114301612169A068084321
:104C1000616908432168CA6841F20C639A43024300
:104C2000CA6020684169A26921F440711143416161
:104C30001E492068884202D1FDF7B4FD01E0FDF76E
:104C4000A1FD00EBC00101EB00126068642180004F
:104C5000B2FBF0F3B3FBF1F36FF018067343B2FB52
:104C6000F0F5B2FBF0F605EB8305322303EB0515F7
:104C7000B5FBF1F5B6FBF1F605F0F00505EB061511
:104C8000B2FBF0F6B2FBF0F0B0FBF1F06FF01802FF
:104C9000504306EB800003EB0010B0FBF1F02168FD
:104CA00000F00F002844886070BD0000003801400B
:104CB0000148FEF759BA00007C03002010B5D0F877
:104CC000B42252689047002010BD134610B50A4622
:104CD000002100F026FB002010BD134610B50A4647
:104CE000002100F0B9FB002010BD10B50446802162
:104CF00000F097FB2046BDE81040002100F091BB7A
:104D000010B505210023C0F894121A46194600F088
:104D100008FB002010BD10B50223C261C0F8943218
:104D2000026213460A46002100F096FB002010BDE7
:104D300010B504210023C0F894121A46194600F059
:104D40008BFB002010BD000010B50A46024903A0ED
:104D500000F0E2F8004810BDCC060020484944208D
:104D6000436F6E6669670000122008800048704734
:104D70003000002010B50A46024903A000F0CCF82C
:104D8000004810BDCC06002048494420496E746597
:104D90007266616365000000042008800048704767
:104DA0002C00002010B50A46024903A000F0B4F818
:104DB000004810BDCC06002053544D6963726F65E6
:104DC0006C656374726F6E696373000010B50A4698
:104DD000024903A000F0A0F8004810BDCC06002056
:104DE00053544D33322048756D616E20696E746581
:104DF000726661636500000010B51A2008800A48D9
:104E00000168001D0468001D0068081809D0082208
:104E10000649FEF7D7FC0549042210312046FEF76B
:104E2000D1FC0248801E10BDE8F7FF1F460000209D
:104E3000F8B504460020ADF8000048880D46010A88
:104E4000082948D2DFE801F04704091747473C45E5
:104E5000D4F8B012207C0A6819E0207C02260028D1
:104E6000D4F8B40205D0C16A684688470146467046
:104E70003EE0816AF8E7C0B206282CD2DFE800F0F5
:104E8000030A1014181CD4F8B002426805E0694601
:104E900090471CE0D4F8B0028268E2B1207CF6E7CB
:104EA000D4F8B002C268F8E7D4F8B0020269F4E7B7
:104EB000D4F8B0024269F0E7D4F8B0028269ECE7B6
:104EC000207C40B9D4F8B402416B6846884701465B
:104ED0000EE0207C20B129462046FFF706FFF8BDF2
:104EE000D4F8B402016B6846884701460720487031
:104EF000BDF8000048B1EA8852B1824200D90246AA
:104F0000ADF800202046FFF706FFE8880028E6D12C
:104F10002046FFF70DFFF8BD70B5002300281ED016
:104F20000446002502E06D1CEDB2641C2678002EBC
:104F3000F9D1022404EB450414801278CA545B1C96
:104F40000322CA5400245B1C06E0CA545B1CDAB27C
:104F50008C54521CD3B2401C0278002AF5D170BD8B
:104F600001004FF0000004D0012901D0022901D036
:104F70000220704701207047D0F8B8020021017369
:104F80000846704770B50446812100F0CDF8002531
:104F9000E562D4F8B80218B100F02DFCC4F8B8529C
:104FA000002070BD0A2101800048704710010020D8
:104FB00022210180004870479800002022210180B2
:104FC00000487047BC000020222101800048704743
:104FD000E000002010B5044604230322812100F0E4
:104FE00094F90120E062102000F006FCC4F8B80239
:104FF00018B100210173084610BD022010BD10B584
:10500000134690F89C42D0F8B822032C07D1147BA9
:105010002CB9012414730A46812100F01DFA0020E6
:1050200010BD000038B503460022D0F8B802ADF834
:10503000002014460A7812F0600216D0202A4AD1C5
:105040004A78022A0ED0032A06D00A2A06D00B2A52
:1050500041D18978016042E001222BE04988090AA8
:1050600041603CE00122011D25E04A7832B1062A68
:105070000BD00A2A23D00B2A2DD128E093F89C02CA
:10508000032828D10222694615E048882222B2EB83
:10509000102F05D1CA884A2A00D94A22124809E0AD
:1050A0002122B2EB102F16D10F48CA881838092ACE
:1050B00000D9092201461846FFF72DFE0FE093F8AC
:1050C0009C22032A07D1012200F10801F3E793F89B
:1050D0009C22032A05D01846FFF707FE022420462B
:1050E00038BD89788160FAE71C01002010B580B1D5
:1050F000D0F8B43213B10023C0F8B43209B1C0F80B
:10510000B012012180F89C12027000F0BBF8002060
:1051100010BD022010BD10B5D0F8C002FCF787FD0D
:10512000BDE81040FFF71CBF10B5D0F8C002FCF777
:1051300059FDBDE81040FFF713BF2DE9F0411746B8
:10514000044651B1D4F8B40242691AB194F89C02F1
:10515000032851D00220BDE8F081D4F89432002514
:1051600004F11400022B03D0042B3AD0C3B33CE06B
:10517000D0E903639E4207D9F11AC1608AB2394669
:105180002046FFF7AAFD12E08068B0FBF3F103FBB5
:10519000110199B9984211D3D4F8981288420DD2CE
:1051A000002211462046FFF798FDC4F898520023CC
:1051B0001A461946204600F0B4F816E0D4F8B402B6
:1051C000C16829B194F89C02032801D12046884780
:1051D0008021204600F025F92046FFF791FD04E0EC
:1051E000FFE78021204600F01CF994F8A002012876
:1051F00004D184F8A05201E0204690470020AAE79D
:1052000070B51546044649B1D4F8B40282691AB1A2
:1052100094F89C02032830D0022070BDD4F8941278
:1052200004F5AA70032902D005291ED027E0D0E991
:1052300003218A420BD9531AC3600846834200D324
:1052400003469AB229462046FFF73FFD17E0D4F8FF
:10525000B402016929B194F89C02032801D12046C7
:1052600088472046FFF764FD09E000200146C4F8A6
:105270009402204600F0D5F801E020469047002037
:1052800070BD000010B517490446C1F8D402C0F83B
:10529000C01215480860082008710220887100209B
:1052A0008872C87208730846FDF72AF808B1FBF740
:1052B000FBFB0022D4F8C0021823114604F5307419
:1052C000FCF75EFC5823002280212068FCF758FC84
:1052D0004FF48073002281212068FCF751FC0020EC
:1052E00010BD0000E0080020005C00400A0601F04C
:1052F0007F01D0F8C00201EB810100EBC10001D5B4
:10530000807C704790F85201704710B51C461346D8
:10531000D0F8C0022246FCF7C6FEBDE81040FFF7F9
:105320001FBE10B5D0F8C002FCF7E9FEBDE8104082
:10533000FFF716BE70B50022044640231146FFF762
:10534000E4FF40260125C4F8646133460022802131
:105350002046C4F85851FFF7D8FF6662A56184F86B
:105360009C520020C4F894026060C4F8A402D4F8EF
:10537000B80228B1D4F8B402002142682046904710
:10538000002070BD90F89C12042903D190F89D1262
:1053900080F89C120020704710B590F89C120329E9
:1053A00004D1D0F8B412C96901B18847002010BDFA
:1053B00001740020704710B5D0F8C002FDF73FF827
:1053C000BDE81040FFF7CCBD70B5044600F52A706B
:1053D000054600F04AF80120C4F89402B4F8AE0281
:1053E000C4F8980294F8A80210F01F010AD001290D
:1053F0000DD0022910D000F08001204600F011F8F5
:10540000002070BD2946204600F09DF8F8E72946A7
:10541000204600F0C9F9F3E72946204600F01CF9C0
:10542000EEE710B5D0F8C002FCF780FEBDE81040F2
:10543000FFF796BD10B5D0F8C002FDF71AF8BDE829
:105440001040FFF78DBD90F89C1280F89D1204214A
:1054500080F89C120020704710B5D0F8C002FCF70D
:105460009DFEBDE81040FFF77BBD0A7802704A78C8
:1054700042708A78CB7802EB032242800A794B791A
:1054800002EB032282808A79C97902EB0121C18073
:1054900070470246002011B1C2F8B41270470220D2
:1054A000704710B5D0F8B42202241AB112689047A0
:1054B00000B90024204610BD70B50E461E4D8978F7
:1054C00004462970012931D894F89C0202280BD097
:1054D00003280FD031462046FFF707FC29782046E5
:1054E000BDE87040FFF7EABBD9B10320616084F8E2
:1054F0009C0209E071B16068884212D0C1B22046B6
:10550000FFF7DCFB297861602046FFF7CAFF02281D
:105510000CD006E0022084F89C0220466160FFF770
:10552000CDFB2046BDE87040FFF702BC3146204667
:10553000BDE87040FFF7D9BB5E00002010B5FFF753
:1055400079FF002010BD2DE9F0410A78002612F005
:10555000600208D0202A01D0402A70D1D0F8B422AD
:10556000926890476DE04B78002201250A2B66D2A5
:10557000DFE803F0405D6557650805652C29FFF7F6
:1055800057FC5EE004468888D8B9C888C8B94888FE
:10559000802816D200F07F0794F89C02032810D0D0
:1055A00084F89E7239462046FFF705FF2046FFF734
:1055B000BFFB1FB1022084F89C0242E084F89C5299
:1055C0003FE020463BE0FFF777FF3AE0CB88012B36
:1055D00035D190F89C32012B04D0022B02D0032B42
:1055E0002DD104E08260012200F1080116E00122C1
:1055F000011D13E090F89C22012A03D0022A01D059
:10560000032A1CD1CA88022A19D1C560D0F8A41275
:1056100009B10321C160022200F10C01FFF77BFBFD
:105620000FE0498801290CD1C0F8A45211E090F88C
:105630009C32012B08D0022B06D0032B04D0FFF79D
:1056400054FB3046BDE8F08149880129F9D1C0F802
:10565000A422FFF76DFBF4E72DE9F0410A4604466A
:1056600010780027097910F060030AD0202B01D0B0
:10567000402B50D1D4F8B402114683682046984795
:105680008FE0C0F34110012806D05078D0B3012834
:105690002AD003283FD107E0D4F8B402114683682A
:1056A0002046BDE8F041184794F89C02022802D039
:1056B000032872D10AE071B380296ED02046FFF72B
:1056C000B0FE80212046FFF7ACFE6AE0508838B972
:1056D00031B1802904D0D08810B92046FFF7A1FE4F
:1056E0002046FFF725FB5CE094F89C020228E2D0FC
:1056F000032852D1508898BB4806F1D02046FFF7C6
:105700000AFDEDE7FFE794F89C020026022803D08B
:10571000032842D112E040E009B180293DD10806BA
:1057200001F07F0000EB800004EB800101D5143113
:1057300001E001F5AA7102220E602AE0080601F0DC
:105740000F0000EB800004EB80000AD5806920B3D5
:1057500001F07F0000EB800004EB800514350BE0C6
:105760001FE0D0F85801C0B101F07F0000EB8000CD
:1057700004EB800505F5AA7541B1802906D02046C5
:10578000FFF7B4FD10B10120286000E02E60022276
:1057900029462046FFF7BFFA03E011462046FFF7EF
:1057A000A4FA3846BDE8F08170B5054608780C4685
:1057B00010F0600003D0202801D0402816D195F8C1
:1057C0009C02012803D0022801D003280ED12079A1
:1057D00001280BD8D5F8B402826828469047E188A2
:1057E000014306D12846FFF7A3FA02E02846FFF757
:1057F0007CFA002070BD704700487047CC0800203C
:105800002DE9F0470C78002630F8243048F68F1246
:105810001340CA78002A78D0012A7CD0022A02D00C
:10582000032A75D0012648F28002134320F8243061
:105830000D7830F8253048F68F7423402B431343FE
:1058400020F825300D7B48F2C00948F6BF734CF2B2
:10585000800A4BF68F77EDB3CD7891F800C0022D1A
:1058600030F82C507DD048F68F6805EA08051543BE
:1058700020F82C50B0F8505091F800C0054405EBCA
:105880000C15B1F808C02CF0010CA5F800C4B0F854
:10589000505091F800C0054405EB0C15B1F80AC052
:1058A0002CF0010CA5F808C44D78002D7ED00D78A1
:1058B00030F825C05FEA4C4C07D530F825C00CEA1B
:1058C000040C4CEA0A0C20F825C091F800C030F80E
:1058D0002C5000E022E06D0606D530F82C50254013
:1058E00045EA090520F82C50CC780D78012C30F8C9
:1058F000254004EA03047CD084F02003134320F8FD
:105900002530C1E001E006E002E043F400738AE7DD
:1059100043F4C06387E743F4806384E74D784DB375
:10592000B0F850500F78054405EB0715CF8827F0E5
:105930000107A5F800740F7830F827506D0606D5DA
:1059400030F82750254045EA090520F82750CC7843
:10595000012C07D00C7830F82410194081F0200178
:1059600004E064E00C7830F824101940114320F86A
:10597000241090E0B0F850300D78034403EB051389
:10598000CD8825F00105A3F80854B0F850300D7803
:10599000034403EB0513B3F80C54C5F30905A3F84E
:1059A0000C540D6903F20C433E2D00E045E00BD989
:1059B0004FEA551CED0601D1ACF1010C1D884FF4E6
:1059C000004848EA8C2C0BE035B34FEA550CED0744
:1059D00001D00CF1010C1D884FF6FF7808EA8C2CE1
:1059E00045EA0C051D800D7830F825305B0408D59C
:1059F00000E046E030F82530234043EA0A0320F86F
:105A00002530097861B130F821303B4083F40053F0
:105A1000134320F821303EE01D8845F40045E1E7BE
:105A20000188394081F440511143018033E0254021
:105A300048F2801845EA08051AE791F800C030F8E6
:105A40002C506D0406D530F82C50254045EA0A0547
:105A500020F82C5091F800C030F82C506D0606D577
:105A600030F82C50254045EA090520F82C500D78D7
:105A700030F825403C4084F44054144320F825403D
:105A800070E7144320F825400B7830F82310394094
:105A9000114320F823103046BDE8F08700207047FE
:105AA0002DE9F04391F80C804F780A7848F6BF7CD6
:105AB0004BF68F7948F2800348F2C0054CF280061D
:105AC00048F68F74B8F1000F28D0002F30F82270FC
:105AD0004FEA474748D0002F05DA30F822702740B8
